{
  "_format": "hh-sol-artifact-1",
  "contractName": "BallSonic",
  "sourceName": "contracts/mint.sol",
  "abi": [
    {
      "inputs": [],
      "stateMutability": "nonpayable",
      "type": "constructor"
    },
    {
      "anonymous": false,
      "inputs": [
        {
          "indexed": true,
          "internalType": "address",
          "name": "owner",
          "type": "address"
        },
        {
          "indexed": true,
          "internalType": "address",
          "name": "approved",
          "type": "address"
        },
        {
          "indexed": true,
          "internalType": "uint256",
          "name": "tokenId",
          "type": "uint256"
        }
      ],
      "name": "Approval",
      "type": "event"
    },
    {
      "anonymous": false,
      "inputs": [
        {
          "indexed": true,
          "internalType": "address",
          "name": "owner",
          "type": "address"
        },
        {
          "indexed": true,
          "internalType": "address",
          "name": "operator",
          "type": "address"
        },
        {
          "indexed": false,
          "internalType": "bool",
          "name": "approved",
          "type": "bool"
        }
      ],
      "name": "ApprovalForAll",
      "type": "event"
    },
    {
      "anonymous": false,
      "inputs": [
        {
          "indexed": true,
          "internalType": "address",
          "name": "previousOwner",
          "type": "address"
        },
        {
          "indexed": true,
          "internalType": "address",
          "name": "newOwner",
          "type": "address"
        }
      ],
      "name": "OwnershipTransferred",
      "type": "event"
    },
    {
      "anonymous": false,
      "inputs": [
        {
          "indexed": true,
          "internalType": "address",
          "name": "from",
          "type": "address"
        },
        {
          "indexed": true,
          "internalType": "address",
          "name": "to",
          "type": "address"
        },
        {
          "indexed": true,
          "internalType": "uint256",
          "name": "tokenId",
          "type": "uint256"
        }
      ],
      "name": "Transfer",
      "type": "event"
    },
    {
      "inputs": [
        {
          "internalType": "address",
          "name": "",
          "type": "address"
        },
        {
          "internalType": "uint256",
          "name": "",
          "type": "uint256"
        }
      ],
      "name": "addressTokenIds",
      "outputs": [
        {
          "internalType": "uint256",
          "name": "",
          "type": "uint256"
        }
      ],
      "stateMutability": "view",
      "type": "function"
    },
    {
      "inputs": [
        {
          "internalType": "address",
          "name": "to",
          "type": "address"
        },
        {
          "internalType": "uint256",
          "name": "tokenId",
          "type": "uint256"
        }
      ],
      "name": "approve",
      "outputs": [],
      "stateMutability": "nonpayable",
      "type": "function"
    },
    {
      "inputs": [
        {
          "internalType": "address",
          "name": "owner",
          "type": "address"
        }
      ],
      "name": "balanceOf",
      "outputs": [
        {
          "internalType": "uint256",
          "name": "",
          "type": "uint256"
        }
      ],
      "stateMutability": "view",
      "type": "function"
    },
    {
      "inputs": [],
      "name": "baseURI",
      "outputs": [
        {
          "internalType": "string",
          "name": "",
          "type": "string"
        }
      ],
      "stateMutability": "view",
      "type": "function"
    },
    {
      "inputs": [
        {
          "internalType": "uint256",
          "name": "tokenId",
          "type": "uint256"
        }
      ],
      "name": "getApproved",
      "outputs": [
        {
          "internalType": "address",
          "name": "",
          "type": "address"
        }
      ],
      "stateMutability": "view",
      "type": "function"
    },
    {
      "inputs": [
        {
          "internalType": "address",
          "name": "owner",
          "type": "address"
        },
        {
          "internalType": "address",
          "name": "operator",
          "type": "address"
        }
      ],
      "name": "isApprovedForAll",
      "outputs": [
        {
          "internalType": "bool",
          "name": "",
          "type": "bool"
        }
      ],
      "stateMutability": "view",
      "type": "function"
    },
    {
      "inputs": [],
      "name": "mint",
      "outputs": [],
      "stateMutability": "payable",
      "type": "function"
    },
    {
      "inputs": [],
      "name": "name",
      "outputs": [
        {
          "internalType": "string",
          "name": "",
          "type": "string"
        }
      ],
      "stateMutability": "view",
      "type": "function"
    },
    {
      "inputs": [],
      "name": "owner",
      "outputs": [
        {
          "internalType": "address",
          "name": "",
          "type": "address"
        }
      ],
      "stateMutability": "view",
      "type": "function"
    },
    {
      "inputs": [
        {
          "internalType": "uint256",
          "name": "tokenId",
          "type": "uint256"
        }
      ],
      "name": "ownerOf",
      "outputs": [
        {
          "internalType": "address",
          "name": "",
          "type": "address"
        }
      ],
      "stateMutability": "view",
      "type": "function"
    },
    {
      "inputs": [],
      "name": "ownerWithdraw",
      "outputs": [],
      "stateMutability": "nonpayable",
      "type": "function"
    },
    {
      "inputs": [],
      "name": "renounceOwnership",
      "outputs": [],
      "stateMutability": "nonpayable",
      "type": "function"
    },
    {
      "inputs": [
        {
          "internalType": "address",
          "name": "from",
          "type": "address"
        },
        {
          "internalType": "address",
          "name": "to",
          "type": "address"
        },
        {
          "internalType": "uint256",
          "name": "tokenId",
          "type": "uint256"
        }
      ],
      "name": "safeTransferFrom",
      "outputs": [],
      "stateMutability": "nonpayable",
      "type": "function"
    },
    {
      "inputs": [
        {
          "internalType": "address",
          "name": "from",
          "type": "address"
        },
        {
          "internalType": "address",
          "name": "to",
          "type": "address"
        },
        {
          "internalType": "uint256",
          "name": "tokenId",
          "type": "uint256"
        },
        {
          "internalType": "bytes",
          "name": "data",
          "type": "bytes"
        }
      ],
      "name": "safeTransferFrom",
      "outputs": [],
      "stateMutability": "nonpayable",
      "type": "function"
    },
    {
      "inputs": [
        {
          "internalType": "address",
          "name": "operator",
          "type": "address"
        },
        {
          "internalType": "bool",
          "name": "approved",
          "type": "bool"
        }
      ],
      "name": "setApprovalForAll",
      "outputs": [],
      "stateMutability": "nonpayable",
      "type": "function"
    },
    {
      "inputs": [
        {
          "internalType": "string",
          "name": "_baseURI",
          "type": "string"
        }
      ],
      "name": "setBaseURI",
      "outputs": [],
      "stateMutability": "nonpayable",
      "type": "function"
    },
    {
      "inputs": [
        {
          "internalType": "bytes4",
          "name": "interfaceId",
          "type": "bytes4"
        }
      ],
      "name": "supportsInterface",
      "outputs": [
        {
          "internalType": "bool",
          "name": "",
          "type": "bool"
        }
      ],
      "stateMutability": "view",
      "type": "function"
    },
    {
      "inputs": [],
      "name": "symbol",
      "outputs": [
        {
          "internalType": "string",
          "name": "",
          "type": "string"
        }
      ],
      "stateMutability": "view",
      "type": "function"
    },
    {
      "inputs": [],
      "name": "tokenCount",
      "outputs": [
        {
          "internalType": "uint256",
          "name": "",
          "type": "uint256"
        }
      ],
      "stateMutability": "view",
      "type": "function"
    },
    {
      "inputs": [],
      "name": "tokenId",
      "outputs": [
        {
          "internalType": "uint256",
          "name": "",
          "type": "uint256"
        }
      ],
      "stateMutability": "view",
      "type": "function"
    },
    {
      "inputs": [
        {
          "internalType": "uint256",
          "name": "tokenId",
          "type": "uint256"
        }
      ],
      "name": "tokenURI",
      "outputs": [
        {
          "internalType": "string",
          "name": "",
          "type": "string"
        }
      ],
      "stateMutability": "view",
      "type": "function"
    },
    {
      "inputs": [
        {
          "internalType": "address",
          "name": "from",
          "type": "address"
        },
        {
          "internalType": "address",
          "name": "to",
          "type": "address"
        },
        {
          "internalType": "uint256",
          "name": "tokenId",
          "type": "uint256"
        }
      ],
      "name": "transferFrom",
      "outputs": [],
      "stateMutability": "nonpayable",
      "type": "function"
    },
    {
      "inputs": [
        {
          "internalType": "address",
          "name": "newOwner",
          "type": "address"
        }
      ],
      "name": "transferOwnership",
      "outputs": [],
      "stateMutability": "nonpayable",
      "type": "function"
    }
  ],
  "bytecode": "0x60806040523480156200001157600080fd5b506040518060400160405280600f81526020017f42616c6c547261646974696f6e616c00000000000000000000000000000000008152506040518060400160405280600381526020017f4241530000000000000000000000000000000000000000000000000000000000815250816000908051906020019062000096929190620001af565b508060019080519060200190620000af929190620001af565b505050620000d2620000c6620000e160201b60201c565b620000e960201b60201c565b6107d0600a81905550620002c4565b600033905090565b6000600760009054906101000a900473ffffffffffffffffffffffffffffffffffffffff16905081600760006101000a81548173ffffffffffffffffffffffffffffffffffffffff021916908373ffffffffffffffffffffffffffffffffffffffff1602179055508173ffffffffffffffffffffffffffffffffffffffff168173ffffffffffffffffffffffffffffffffffffffff167f8be0079c531659141344cd1fd0a4f28419497f9722a3daafe3b4186f6b6457e060405160405180910390a35050565b828054620001bd906200028e565b90600052602060002090601f016020900481019282620001e157600085556200022d565b82601f10620001fc57805160ff19168380011785556200022d565b828001600101855582156200022d579182015b828111156200022c5782518255916020019190600101906200020f565b5b5090506200023c919062000240565b5090565b5b808211156200025b57600081600090555060010162000241565b5090565b7f4e487b7100000000000000000000000000000000000000000000000000000000600052602260045260246000fd5b60006002820490506001821680620002a757607f821691505b60208210811415620002be57620002bd6200025f565b5b50919050565b6131d780620002d46000396000f3fe6080604052600436106101405760003560e01c80636c0360eb116100b6578063a22cb4651161006f578063a22cb46514610417578063b88d4fde14610440578063c87b56dd14610469578063e985e9c5146104a6578063f2fde38b146104e3578063f52308d71461050c57610140565b80636c0360eb1461031757806370a0823114610342578063715018a61461037f5780638da5cb5b1461039657806395d89b41146103c15780639f181b5e146103ec57610140565b806317d70f7c1161010857806317d70f7c1461021d57806323b872dd1461024857806342842e0e146102715780634311de8f1461029a57806355f804b3146102b15780636352211e146102da57610140565b806301ffc9a71461014557806306fdde0314610182578063081812fc146101ad578063095ea7b3146101ea5780631249c58b14610213575b600080fd5b34801561015157600080fd5b5061016c60048036038101906101679190611fe0565b610549565b6040516101799190612028565b60405180910390f35b34801561018e57600080fd5b5061019761062b565b6040516101a491906120dc565b60405180910390f35b3480156101b957600080fd5b506101d460048036038101906101cf9190612134565b6106bd565b6040516101e191906121a2565b60405180910390f35b3480156101f657600080fd5b50610211600480360381019061020c91906121e9565b610703565b005b61021b61081b565b005b34801561022957600080fd5b50610232610974565b60405161023f9190612238565b60405180910390f35b34801561025457600080fd5b5061026f600480360381019061026a9190612253565b61097a565b005b34801561027d57600080fd5b5061029860048036038101906102939190612253565b6109da565b005b3480156102a657600080fd5b506102af6109fa565b005b3480156102bd57600080fd5b506102d860048036038101906102d391906123db565b610ab7565b005b3480156102e657600080fd5b5061030160048036038101906102fc9190612134565b610ad9565b60405161030e91906121a2565b60405180910390f35b34801561032357600080fd5b5061032c610b8b565b60405161033991906120dc565b60405180910390f35b34801561034e57600080fd5b5061036960048036038101906103649190612424565b610c19565b6040516103769190612238565b60405180910390f35b34801561038b57600080fd5b50610394610cd1565b005b3480156103a257600080fd5b506103ab610ce5565b6040516103b891906121a2565b60405180910390f35b3480156103cd57600080fd5b506103d6610d0f565b6040516103e391906120dc565b60405180910390f35b3480156103f857600080fd5b50610401610da1565b60405161040e9190612238565b60405180910390f35b34801561042357600080fd5b5061043e6004803603810190610439919061247d565b610da7565b005b34801561044c57600080fd5b506104676004803603810190610462919061255e565b610dbd565b005b34801561047557600080fd5b50610490600480360381019061048b9190612134565b610e1f565b60405161049d91906120dc565b60405180910390f35b3480156104b257600080fd5b506104cd60048036038101906104c891906125e1565b610f32565b6040516104da9190612028565b60405180910390f35b3480156104ef57600080fd5b5061050a60048036038101906105059190612424565b610fc6565b005b34801561051857600080fd5b50610533600480360381019061052e91906121e9565b61104a565b6040516105409190612238565b60405180910390f35b60007f80ac58cd000000000000000000000000000000000000000000000000000000007bffffffffffffffffffffffffffffffffffffffffffffffffffffffff1916827bffffffffffffffffffffffffffffffffffffffffffffffffffffffff1916148061061457507f5b5e139f000000000000000000000000000000000000000000000000000000007bffffffffffffffffffffffffffffffffffffffffffffffffffffffff1916827bffffffffffffffffffffffffffffffffffffffffffffffffffffffff1916145b8061062457506106238261107b565b5b9050919050565b60606000805461063a90612650565b80601f016020809104026020016040519081016040528092919081815260200182805461066690612650565b80156106b35780601f10610688576101008083540402835291602001916106b3565b820191906000526020600020905b81548152906001019060200180831161069657829003601f168201915b5050505050905090565b60006106c8826110e5565b6004600083815260200190815260200160002060009054906101000a900473ffffffffffffffffffffffffffffffffffffffff169050919050565b600061070e82610ad9565b90508073ffffffffffffffffffffffffffffffffffffffff168373ffffffffffffffffffffffffffffffffffffffff16141561077f576040517f08c379a0000000000000000000000000000000000000000000000000000000008152600401610776906126f4565b60405180910390fd5b8073ffffffffffffffffffffffffffffffffffffffff1661079e611130565b73ffffffffffffffffffffffffffffffffffffffff1614806107cd57506107cc816107c7611130565b610f32565b5b61080c576040517f08c379a000000000000000000000000000000000000000000000000000000000815260040161080390612786565b60405180910390fd5b6108168383611138565b505050565b6000600a541161082a57600080fd5b600134101561083857600080fd5b6008600081548092919061084b906127d5565b9190505550600a60008154809291906108639061281e565b9190505550600b60003373ffffffffffffffffffffffffffffffffffffffff1673ffffffffffffffffffffffffffffffffffffffff16815260200190815260200160002060085490806001815401808255809150506001900390600052602060002001600090919091909150556108dc336008546111f1565b610972600854600980546108ef90612650565b80601f016020809104026020016040519081016040528092919081815260200182805461091b90612650565b80156109685780601f1061093d57610100808354040283529160200191610968565b820191906000526020600020905b81548152906001019060200180831161094b57829003601f168201915b505050505061120f565b565b60085481565b61098b610985611130565b82611283565b6109ca576040517f08c379a00000000000000000000000000000000000000000000000000000000081526004016109c1906128ba565b60405180910390fd5b6109d5838383611318565b505050565b6109f583838360405180602001604052806000815250610dbd565b505050565b610a0261157f565b600033905060008173ffffffffffffffffffffffffffffffffffffffff1647604051610a2d9061290b565b60006040518083038185875af1925050503d8060008114610a6a576040519150601f19603f3d011682016040523d82523d6000602084013e610a6f565b606091505b5050905080610ab3576040517f08c379a0000000000000000000000000000000000000000000000000000000008152600401610aaa9061296c565b60405180910390fd5b5050565b610abf61157f565b8060099080519060200190610ad5929190611ed1565b5050565b6000806002600084815260200190815260200160002060009054906101000a900473ffffffffffffffffffffffffffffffffffffffff169050600073ffffffffffffffffffffffffffffffffffffffff168173ffffffffffffffffffffffffffffffffffffffff161415610b82576040517f08c379a0000000000000000000000000000000000000000000000000000000008152600401610b79906129d8565b60405180910390fd5b80915050919050565b60098054610b9890612650565b80601f0160208091040260200160405190810160405280929190818152602001828054610bc490612650565b8015610c115780601f10610be657610100808354040283529160200191610c11565b820191906000526020600020905b815481529060010190602001808311610bf457829003601f168201915b505050505081565b60008073ffffffffffffffffffffffffffffffffffffffff168273ffffffffffffffffffffffffffffffffffffffff161415610c8a576040517f08c379a0000000000000000000000000000000000000000000000000000000008152600401610c8190612a6a565b60405180910390fd5b600360008373ffffffffffffffffffffffffffffffffffffffff1673ffffffffffffffffffffffffffffffffffffffff168152602001908152602001600020549050919050565b610cd961157f565b610ce360006115fd565b565b6000600760009054906101000a900473ffffffffffffffffffffffffffffffffffffffff16905090565b606060018054610d1e90612650565b80601f0160208091040260200160405190810160405280929190818152602001828054610d4a90612650565b8015610d975780601f10610d6c57610100808354040283529160200191610d97565b820191906000526020600020905b815481529060010190602001808311610d7a57829003601f168201915b5050505050905090565b600a5481565b610db9610db2611130565b83836116c3565b5050565b610dce610dc8611130565b83611283565b610e0d576040517f08c379a0000000000000000000000000000000000000000000000000000000008152600401610e04906128ba565b60405180910390fd5b610e1984848484611830565b50505050565b6060610e2a826110e5565b6000600660008481526020019081526020016000208054610e4a90612650565b80601f0160208091040260200160405190810160405280929190818152602001828054610e7690612650565b8015610ec35780601f10610e9857610100808354040283529160200191610ec3565b820191906000526020600020905b815481529060010190602001808311610ea657829003601f168201915b505050505090506000610ed461188c565b9050600081511415610eea578192505050610f2d565b600082511115610f1f578082604051602001610f07929190612ac6565b60405160208183030381529060405292505050610f2d565b610f28846118a3565b925050505b919050565b6000600560008473ffffffffffffffffffffffffffffffffffffffff1673ffffffffffffffffffffffffffffffffffffffff16815260200190815260200160002060008373ffffffffffffffffffffffffffffffffffffffff1673ffffffffffffffffffffffffffffffffffffffff16815260200190815260200160002060009054906101000a900460ff16905092915050565b610fce61157f565b600073ffffffffffffffffffffffffffffffffffffffff168173ffffffffffffffffffffffffffffffffffffffff16141561103e576040517f08c379a000000000000000000000000000000000000000000000000000000000815260040161103590612b5c565b60405180910390fd5b611047816115fd565b50565b600b602052816000526040600020818154811061106657600080fd5b90600052602060002001600091509150505481565b60007f01ffc9a7000000000000000000000000000000000000000000000000000000007bffffffffffffffffffffffffffffffffffffffffffffffffffffffff1916827bffffffffffffffffffffffffffffffffffffffffffffffffffffffff1916149050919050565b6110ee8161190b565b61112d576040517f08c379a0000000000000000000000000000000000000000000000000000000008152600401611124906129d8565b60405180910390fd5b50565b600033905090565b816004600083815260200190815260200160002060006101000a81548173ffffffffffffffffffffffffffffffffffffffff021916908373ffffffffffffffffffffffffffffffffffffffff160217905550808273ffffffffffffffffffffffffffffffffffffffff166111ab83610ad9565b73ffffffffffffffffffffffffffffffffffffffff167f8c5be1e5ebec7d5bd14f71427d1e84f3dd0314c0f7b2291e5b200ac8c7c3b92560405160405180910390a45050565b61120b828260405180602001604052806000815250611977565b5050565b6112188261190b565b611257576040517f08c379a000000000000000000000000000000000000000000000000000000000815260040161124e90612bee565b60405180910390fd5b8060066000848152602001908152602001600020908051906020019061127e929190611ed1565b505050565b60008061128f83610ad9565b90508073ffffffffffffffffffffffffffffffffffffffff168473ffffffffffffffffffffffffffffffffffffffff1614806112d157506112d08185610f32565b5b8061130f57508373ffffffffffffffffffffffffffffffffffffffff166112f7846106bd565b73ffffffffffffffffffffffffffffffffffffffff16145b91505092915050565b8273ffffffffffffffffffffffffffffffffffffffff1661133882610ad9565b73ffffffffffffffffffffffffffffffffffffffff161461138e576040517f08c379a000000000000000000000000000000000000000000000000000000000815260040161138590612c80565b60405180910390fd5b600073ffffffffffffffffffffffffffffffffffffffff168273ffffffffffffffffffffffffffffffffffffffff1614156113fe576040517f08c379a00000000000000000000000000000000000000000000000000000000081526004016113f590612d12565b60405180910390fd5b6114098383836119d2565b611414600082611138565b6001600360008573ffffffffffffffffffffffffffffffffffffffff1673ffffffffffffffffffffffffffffffffffffffff16815260200190815260200160002060008282546114649190612d32565b925050819055506001600360008473ffffffffffffffffffffffffffffffffffffffff1673ffffffffffffffffffffffffffffffffffffffff16815260200190815260200160002060008282546114bb9190612d66565b92505081905550816002600083815260200190815260200160002060006101000a81548173ffffffffffffffffffffffffffffffffffffffff021916908373ffffffffffffffffffffffffffffffffffffffff160217905550808273ffffffffffffffffffffffffffffffffffffffff168473ffffffffffffffffffffffffffffffffffffffff167fddf252ad1be2c89b69c2b068fc378daa952ba7f163c4a11628f55a4df523b3ef60405160405180910390a461157a8383836119d7565b505050565b611587611130565b73ffffffffffffffffffffffffffffffffffffffff166115a5610ce5565b73ffffffffffffffffffffffffffffffffffffffff16146115fb576040517f08c379a00000000000000000000000000000000000000000000000000000000081526004016115f290612e08565b60405180910390fd5b565b6000600760009054906101000a900473ffffffffffffffffffffffffffffffffffffffff16905081600760006101000a81548173ffffffffffffffffffffffffffffffffffffffff021916908373ffffffffffffffffffffffffffffffffffffffff1602179055508173ffffffffffffffffffffffffffffffffffffffff168173ffffffffffffffffffffffffffffffffffffffff167f8be0079c531659141344cd1fd0a4f28419497f9722a3daafe3b4186f6b6457e060405160405180910390a35050565b8173ffffffffffffffffffffffffffffffffffffffff168373ffffffffffffffffffffffffffffffffffffffff161415611732576040517f08c379a000000000000000000000000000000000000000000000000000000000815260040161172990612e74565b60405180910390fd5b80600560008573ffffffffffffffffffffffffffffffffffffffff1673ffffffffffffffffffffffffffffffffffffffff16815260200190815260200160002060008473ffffffffffffffffffffffffffffffffffffffff1673ffffffffffffffffffffffffffffffffffffffff16815260200190815260200160002060006101000a81548160ff0219169083151502179055508173ffffffffffffffffffffffffffffffffffffffff168373ffffffffffffffffffffffffffffffffffffffff167f17307eab39ab6107e8899845ad3d59bd9653f200f220920489ca2b5937696c31836040516118239190612028565b60405180910390a3505050565b61183b848484611318565b611847848484846119dc565b611886576040517f08c379a000000000000000000000000000000000000000000000000000000000815260040161187d90612f06565b60405180910390fd5b50505050565b606060405180602001604052806000815250905090565b60606118ae826110e5565b60006118b861188c565b905060008151116118d85760405180602001604052806000815250611903565b806118e284611b73565b6040516020016118f3929190612ac6565b6040516020818303038152906040525b915050919050565b60008073ffffffffffffffffffffffffffffffffffffffff166002600084815260200190815260200160002060009054906101000a900473ffffffffffffffffffffffffffffffffffffffff1673ffffffffffffffffffffffffffffffffffffffff1614159050919050565b6119818383611cd4565b61198e60008484846119dc565b6119cd576040517f08c379a00000000000000000000000000000000000000000000000000000000081526004016119c490612f06565b60405180910390fd5b505050565b505050565b505050565b60006119fd8473ffffffffffffffffffffffffffffffffffffffff16611eae565b15611b66578373ffffffffffffffffffffffffffffffffffffffff1663150b7a02611a26611130565b8786866040518563ffffffff1660e01b8152600401611a489493929190612f7b565b602060405180830381600087803b158015611a6257600080fd5b505af1925050508015611a9357506040513d601f19601f82011682018060405250810190611a909190612fdc565b60015b611b16573d8060008114611ac3576040519150601f19603f3d011682016040523d82523d6000602084013e611ac8565b606091505b50600081511415611b0e576040517f08c379a0000000000000000000000000000000000000000000000000000000008152600401611b0590612f06565b60405180910390fd5b805181602001fd5b63150b7a0260e01b7bffffffffffffffffffffffffffffffffffffffffffffffffffffffff1916817bffffffffffffffffffffffffffffffffffffffffffffffffffffffff191614915050611b6b565b600190505b949350505050565b60606000821415611bbb576040518060400160405280600181526020017f30000000000000000000000000000000000000000000000000000000000000008152509050611ccf565b600082905060005b60008214611bed578080611bd6906127d5565b915050600a82611be69190613038565b9150611bc3565b60008167ffffffffffffffff811115611c0957611c086122b0565b5b6040519080825280601f01601f191660200182016040528015611c3b5781602001600182028036833780820191505090505b5090505b60008514611cc857600182611c549190612d32565b9150600a85611c639190613069565b6030611c6f9190612d66565b60f81b818381518110611c8557611c8461309a565b5b60200101907effffffffffffffffffffffffffffffffffffffffffffffffffffffffffffff1916908160001a905350600a85611cc19190613038565b9450611c3f565b8093505050505b919050565b600073ffffffffffffffffffffffffffffffffffffffff168273ffffffffffffffffffffffffffffffffffffffff161415611d44576040517f08c379a0000000000000000000000000000000000000000000000000000000008152600401611d3b90613115565b60405180910390fd5b611d4d8161190b565b15611d8d576040517f08c379a0000000000000000000000000000000000000000000000000000000008152600401611d8490613181565b60405180910390fd5b611d99600083836119d2565b6001600360008473ffffffffffffffffffffffffffffffffffffffff1673ffffffffffffffffffffffffffffffffffffffff1681526020019081526020016000206000828254611de99190612d66565b92505081905550816002600083815260200190815260200160002060006101000a81548173ffffffffffffffffffffffffffffffffffffffff021916908373ffffffffffffffffffffffffffffffffffffffff160217905550808273ffffffffffffffffffffffffffffffffffffffff16600073ffffffffffffffffffffffffffffffffffffffff167fddf252ad1be2c89b69c2b068fc378daa952ba7f163c4a11628f55a4df523b3ef60405160405180910390a4611eaa600083836119d7565b5050565b6000808273ffffffffffffffffffffffffffffffffffffffff163b119050919050565b828054611edd90612650565b90600052602060002090601f016020900481019282611eff5760008555611f46565b82601f10611f1857805160ff1916838001178555611f46565b82800160010185558215611f46579182015b82811115611f45578251825591602001919060010190611f2a565b5b509050611f539190611f57565b5090565b5b80821115611f70576000816000905550600101611f58565b5090565b6000604051905090565b600080fd5b600080fd5b60007fffffffff0000000000000000000000000000000000000000000000000000000082169050919050565b611fbd81611f88565b8114611fc857600080fd5b50565b600081359050611fda81611fb4565b92915050565b600060208284031215611ff657611ff5611f7e565b5b600061200484828501611fcb565b91505092915050565b60008115159050919050565b6120228161200d565b82525050565b600060208201905061203d6000830184612019565b92915050565b600081519050919050565b600082825260208201905092915050565b60005b8381101561207d578082015181840152602081019050612062565b8381111561208c576000848401525b50505050565b6000601f19601f8301169050919050565b60006120ae82612043565b6120b8818561204e565b93506120c881856020860161205f565b6120d181612092565b840191505092915050565b600060208201905081810360008301526120f681846120a3565b905092915050565b6000819050919050565b612111816120fe565b811461211c57600080fd5b50565b60008135905061212e81612108565b92915050565b60006020828403121561214a57612149611f7e565b5b60006121588482850161211f565b91505092915050565b600073ffffffffffffffffffffffffffffffffffffffff82169050919050565b600061218c82612161565b9050919050565b61219c81612181565b82525050565b60006020820190506121b76000830184612193565b92915050565b6121c681612181565b81146121d157600080fd5b50565b6000813590506121e3816121bd565b92915050565b60008060408385031215612200576121ff611f7e565b5b600061220e858286016121d4565b925050602061221f8582860161211f565b9150509250929050565b612232816120fe565b82525050565b600060208201905061224d6000830184612229565b92915050565b60008060006060848603121561226c5761226b611f7e565b5b600061227a868287016121d4565b935050602061228b868287016121d4565b925050604061229c8682870161211f565b9150509250925092565b600080fd5b600080fd5b7f4e487b7100000000000000000000000000000000000000000000000000000000600052604160045260246000fd5b6122e882612092565b810181811067ffffffffffffffff82111715612307576123066122b0565b5b80604052505050565b600061231a611f74565b905061232682826122df565b919050565b600067ffffffffffffffff821115612346576123456122b0565b5b61234f82612092565b9050602081019050919050565b82818337600083830152505050565b600061237e6123798461232b565b612310565b90508281526020810184848401111561239a576123996122ab565b5b6123a584828561235c565b509392505050565b600082601f8301126123c2576123c16122a6565b5b81356123d284826020860161236b565b91505092915050565b6000602082840312156123f1576123f0611f7e565b5b600082013567ffffffffffffffff81111561240f5761240e611f83565b5b61241b848285016123ad565b91505092915050565b60006020828403121561243a57612439611f7e565b5b6000612448848285016121d4565b91505092915050565b61245a8161200d565b811461246557600080fd5b50565b60008135905061247781612451565b92915050565b6000806040838503121561249457612493611f7e565b5b60006124a2858286016121d4565b92505060206124b385828601612468565b9150509250929050565b600067ffffffffffffffff8211156124d8576124d76122b0565b5b6124e182612092565b9050602081019050919050565b60006125016124fc846124bd565b612310565b90508281526020810184848401111561251d5761251c6122ab565b5b61252884828561235c565b509392505050565b600082601f830112612545576125446122a6565b5b81356125558482602086016124ee565b91505092915050565b6000806000806080858703121561257857612577611f7e565b5b6000612586878288016121d4565b9450506020612597878288016121d4565b93505060406125a88782880161211f565b925050606085013567ffffffffffffffff8111156125c9576125c8611f83565b5b6125d587828801612530565b91505092959194509250565b600080604083850312156125f8576125f7611f7e565b5b6000612606858286016121d4565b9250506020612617858286016121d4565b9150509250929050565b7f4e487b7100000000000000000000000000000000000000000000000000000000600052602260045260246000fd5b6000600282049050600182168061266857607f821691505b6020821081141561267c5761267b612621565b5b50919050565b7f4552433732313a20617070726f76616c20746f2063757272656e74206f776e6560008201527f7200000000000000000000000000000000000000000000000000000000000000602082015250565b60006126de60218361204e565b91506126e982612682565b604082019050919050565b6000602082019050818103600083015261270d816126d1565b9050919050565b7f4552433732313a20617070726f76652063616c6c6572206973206e6f7420746f60008201527f6b656e206f776e6572206e6f7220617070726f76656420666f7220616c6c0000602082015250565b6000612770603e8361204e565b915061277b82612714565b604082019050919050565b6000602082019050818103600083015261279f81612763565b9050919050565b7f4e487b7100000000000000000000000000000000000000000000000000000000600052601160045260246000fd5b60006127e0826120fe565b91507fffffffffffffffffffffffffffffffffffffffffffffffffffffffffffffffff821415612813576128126127a6565b5b600182019050919050565b6000612829826120fe565b9150600082141561283d5761283c6127a6565b5b600182039050919050565b7f4552433732313a2063616c6c6572206973206e6f7420746f6b656e206f776e6560008201527f72206e6f7220617070726f766564000000000000000000000000000000000000602082015250565b60006128a4602e8361204e565b91506128af82612848565b604082019050919050565b600060208201905081810360008301526128d381612897565b9050919050565b600081905092915050565b50565b60006128f56000836128da565b9150612900826128e5565b600082019050919050565b6000612916826128e8565b9150819050919050565b7f5769746864726177206661696c00000000000000000000000000000000000000600082015250565b6000612956600d8361204e565b915061296182612920565b602082019050919050565b6000602082019050818103600083015261298581612949565b9050919050565b7f4552433732313a20696e76616c696420746f6b656e2049440000000000000000600082015250565b60006129c260188361204e565b91506129cd8261298c565b602082019050919050565b600060208201905081810360008301526129f1816129b5565b9050919050565b7f4552433732313a2061646472657373207a65726f206973206e6f74206120766160008201527f6c6964206f776e65720000000000000000000000000000000000000000000000602082015250565b6000612a5460298361204e565b9150612a5f826129f8565b604082019050919050565b60006020820190508181036000830152612a8381612a47565b9050919050565b600081905092915050565b6000612aa082612043565b612aaa8185612a8a565b9350612aba81856020860161205f565b80840191505092915050565b6000612ad28285612a95565b9150612ade8284612a95565b91508190509392505050565b7f4f776e61626c653a206e6577206f776e657220697320746865207a65726f206160008201527f6464726573730000000000000000000000000000000000000000000000000000602082015250565b6000612b4660268361204e565b9150612b5182612aea565b604082019050919050565b60006020820190508181036000830152612b7581612b39565b9050919050565b7f45524337323155524953746f726167653a2055524920736574206f66206e6f6e60008201527f6578697374656e7420746f6b656e000000000000000000000000000000000000602082015250565b6000612bd8602e8361204e565b9150612be382612b7c565b604082019050919050565b60006020820190508181036000830152612c0781612bcb565b9050919050565b7f4552433732313a207472616e736665722066726f6d20696e636f72726563742060008201527f6f776e6572000000000000000000000000000000000000000000000000000000602082015250565b6000612c6a60258361204e565b9150612c7582612c0e565b604082019050919050565b60006020820190508181036000830152612c9981612c5d565b9050919050565b7f4552433732313a207472616e7366657220746f20746865207a65726f2061646460008201527f7265737300000000000000000000000000000000000000000000000000000000602082015250565b6000612cfc60248361204e565b9150612d0782612ca0565b604082019050919050565b60006020820190508181036000830152612d2b81612cef565b9050919050565b6000612d3d826120fe565b9150612d48836120fe565b925082821015612d5b57612d5a6127a6565b5b828203905092915050565b6000612d71826120fe565b9150612d7c836120fe565b9250827fffffffffffffffffffffffffffffffffffffffffffffffffffffffffffffffff03821115612db157612db06127a6565b5b828201905092915050565b7f4f776e61626c653a2063616c6c6572206973206e6f7420746865206f776e6572600082015250565b6000612df260208361204e565b9150612dfd82612dbc565b602082019050919050565b60006020820190508181036000830152612e2181612de5565b9050919050565b7f4552433732313a20617070726f766520746f2063616c6c657200000000000000600082015250565b6000612e5e60198361204e565b9150612e6982612e28565b602082019050919050565b60006020820190508181036000830152612e8d81612e51565b9050919050565b7f4552433732313a207472616e7366657220746f206e6f6e20455243373231526560008201527f63656976657220696d706c656d656e7465720000000000000000000000000000602082015250565b6000612ef060328361204e565b9150612efb82612e94565b604082019050919050565b60006020820190508181036000830152612f1f81612ee3565b9050919050565b600081519050919050565b600082825260208201905092915050565b6000612f4d82612f26565b612f578185612f31565b9350612f6781856020860161205f565b612f7081612092565b840191505092915050565b6000608082019050612f906000830187612193565b612f9d6020830186612193565b612faa6040830185612229565b8181036060830152612fbc8184612f42565b905095945050505050565b600081519050612fd681611fb4565b92915050565b600060208284031215612ff257612ff1611f7e565b5b600061300084828501612fc7565b91505092915050565b7f4e487b7100000000000000000000000000000000000000000000000000000000600052601260045260246000fd5b6000613043826120fe565b915061304e836120fe565b92508261305e5761305d613009565b5b828204905092915050565b6000613074826120fe565b915061307f836120fe565b92508261308f5761308e613009565b5b828206905092915050565b7f4e487b7100000000000000000000000000000000000000000000000000000000600052603260045260246000fd5b7f4552433732313a206d696e7420746f20746865207a65726f2061646472657373600082015250565b60006130ff60208361204e565b915061310a826130c9565b602082019050919050565b6000602082019050818103600083015261312e816130f2565b9050919050565b7f4552433732313a20746f6b656e20616c7265616479206d696e74656400000000600082015250565b600061316b601c8361204e565b915061317682613135565b602082019050919050565b6000602082019050818103600083015261319a8161315e565b905091905056fea2646970667358221220d858bf54f49bbc392e1899b96d432b4345d3c4ec3048c7ec98c09f61f3cadddb64736f6c63430008090033",
  "linkReferences": {},
  "deployedLinkReferences": {}
}